:020000040000FA
:060000000A128A110C280F
:10000800FE00030EF8000A08F9000A128A112028D7
:100018000A128A110F280A128A11DC220A128A117E
:10002800FD00B101B201B301B401FA01FB01FC0109
:1000380083010A128A1113290B1C23282428352826
:1000480083120313061829282A282E280130F400C1
:100058007408880786183128322834280130880225
:100068000B10831203138C1E3A283B280C290D30E1
:100078001A06031D40284128492831088500FA013D
:10008800B101FD01FD0AB401B3010D301A060319CF
:100098004E284F280C291A08F4007408FB00303049
:1000A8007B06031D582859285B28FA01BC283130E3
:1000B8007B06031D602861286428FA01FA0ABC2817
:1000C80032307B06031D69286A286F280230F40045
:1000D8007408FA00BC2833307B06031D7428752881
:1000E8007A280330F4007408FA00BC2834307B0600
:1000F800031D7F28802885280430F4007408FA003E
:10010800BC2835307B06031D8A288B2890280530AB
:10011800F4007408FA00BC2836307B06031D9528C5
:1001280096289B280630F4007408FA00BC2837305B
:100138007B06031DA028A128A6280730F400740810
:10014800FA00BC2838307B06031DAB28AC28B12840
:100158000830F4007408FA00BC2839307B06031D07
:10016800B628B728BC280930F4007408FA00BC285F
:100178007D03031DC028C128CD287A08F40074081F
:10018800B1007A08F4007408FC00FD01B401B40A57
:100198000C293403031DD128D228EA280A30F40098
:1001A8007408F0007C080A128A11C7220A128A1100
:1001B8007A07F500750883120313B1007A08F40072
:1001C8007408B200B401B301B30A0C293303031D48
:1001D800EE28EF280C290A30F4007408F0003208E1
:1001E8000A128A11C7220A128A11F5006430F60031
:1001F8007608F0007C080A128A11C7220A128A11AE
:1002080075077A07F700770883120313B100E62809
:1002180079088A00780E8300FE0E7E0E09000A1205
:100228008A118A220A128A11831203130808A90064
:100238002908B0006430A0000030A1003008A900EF
:10024800AA012908A2002A08A3000A128A11C621B5
:100258000A128A11831203132008AB002B08AD0081
:100268006430A0000030A1003008A900AA012908C4
:10027800A2002A08A3000A128A112F220A128A1140
:10028800831203132008AB002B08AC000A30A0002F
:100298000030A1002C08A900AA012908A2002A08F8
:1002A800A3000A128A11C6210A128A1183120313A3
:1002B8002008AB002B08AE000A30A0000030A100D7
:1002C8003008A900AA012908A2002A08A3000A12D6
:1002D8008A112F220A128A11831203132008AB00F5
:1002E8002B08AF000C1E79297A29BF2934308312D4
:1002F8000313AA00F130A900A90B8029AA0B8029B1
:10030800831203132D08303E9900343083120313EF
:10031800AA00F130A900A90B8F29AA0B8F298312F3
:1003280003132E08303E9900343083120313AA00B9
:10033800F130A900A90B9E29AA0B9E298312031349
:100348002F08303E9900343083120313AA00F1308D
:10035800A900A90BAD29AA0BAD290D3083120313EF
:100368009900343083120313AA00F130A900A90BB5
:10037800BB29AA0BBB29831203130C1218290A12D2
:100388008A110C2883120313A601A11FCC29CD2999
:10039800D429A009A109A00A0319A10AA601A60A3D
:1003A800A31FD729D829E129A209A309A20A031959
:1003B800A30A0130A4002408A606A701A801200862
:1003C80021040319E829E929202AA501A50AF72902
:1003D80001300310A00DA10DFF3E031DED290130D2
:1003E800A4002408A507A11FFA29FB29EC2901303C
:1003F8000310A70DA80DFF3E031DFC2921082302A9
:10040800031D082A20082202031C0B2A0C2A132A7F
:100418002008A2022108031CA303A3022714013009
:100428000310A10CA00CFF3E031D142A0130A502E5
:10043800031D1F2A202AFB2926080319242A252AF6
:100448002A2AA709A809A70A0319A80A2808A1009F
:100458002708A000080083120313A601A31F352A4A
:10046800362A3D2AA209A309A20A0319A30AA6014A
:10047800A60AA11F402A412A462AA009A109A00AC2
:100488000319A10A2008210403194B2A4C2A7B2AA4
:10049800A501A50A5A2A01300310A00DA10DFF3E9F
:1004A800031D502A0130A4002408A507A11F5D2AB6
:1004B8005E2A4F2A21082302031D642A20082202EB
:1004C800031C672A682A6E2A2008A2022108031C36
:1004D800A303A30201300310A10CA00CFF3E031DCF
:1004E8006F2A0130A502031D7A2A7B2A5E2A260874
:1004F80003197F2A802A852AA209A309A20A0319B7
:10050800A30A2308A1002208A000080083160313E9
:100518000F178F160F160F148316031789018801FA
:100528008316031385010330860080308700880115
:10053800811303309500831203138501033086006D
:10054800870188018B170B17831603138C168312E8
:1005580003138C128B1503308316031396000B10AC
:1005680018121815831603178715CF30831603132F
:1005780099009A01831203139817181318168316F3
:10058800031398160800F300F201731CCC2ACD2A35
:10059800D12A7008F1007108F2070310F00D03105A
:1005A800F30C7308031DD92ADA2AC92A720808002D
:0205B80001340C
:04400E00D420FF3F7C
:00000001FF
